:020000040800F2
:10000000AC070020A1AF0008E5AF00085B020008C4
:10001000E5AF0008E5AF0008E5AF0008000000000C
:10002000000000000000000000000000E5AF000834
:10003000E5AF000800000000DF010008E903000848
:10004000E5AF0008E5AF0008E5AF0008E5AF000840
:10005000E5AF0008E5AF0008D30A0008E90A000888
:10006000FF0A0008150B00082B0B0008E5AF00087D
:10007000E5AF0008E5AF0008E5AF0008851300080C
:10008000E5AF0008E5AF0008E5AF0008E5AF000800
:10009000E5AF0008E5AF0008E5AF0008410B000838
:1000A000E5AF0008E5AF0008E5AF0008E5AF0008E0
:1000B000E5AF0008E5AF0008E5AF0008E5AF0008D0
:1000C000E5AF0008E5AF0008E5AF0008E5AF0008C0
:1000D000E5AF000869130008E5AF0008E5AF0008C8
:1000E000730B0008E5AF0008E5AF00080000000052
:1000F0000000000000000000000000000000000000
:1001000000000000000000005FF808F1044B054803
:100110001B1A062B02D9044B03B11847704700BFC6
:10012000AF050020AC05002000000000054906488E
:10013000091A891001EBD171491002D0034B03B1A8
:1001400018477047AC050020AC05002000000000F7
:1001500010B5064C237843B9FFF7D8FF044B13B111
:100160000448AFF300800123237010BDAC070020CA
:10017000000000003CDD000808B5084B1BB1084931
:100180000848AFF300800848036813B9BDE8084089
:10019000CCE7064B002BF9D09847F7E700000000AA
:1001A000B00700203CDD0008AC0500200000000086
:1001B000EFF3108072B6704780F310887047364AAC
:1001C0001368012B04D04FF001031360334A106011
:1001D000334A116033484FF0805101607047EFF3AC
:1001E000108272B62C48016891B14FF00001016095
:1001F0002A48016829B1EFF3098121E9F00F00686D
:100200000160274909680968B1E8F00F81F309889E
:1002100082F310884EF0040E7047214908601F4990
:100220004FF0000008601C494FF0010008601E48B4
:100230004FF47F01D0F8002041EA02010160194823
:100240004FF08051016019480068006800BF80F3DA
:10025000088861B662B6704700BFEFF308801EF0F1
:10026000040F01D0EFF3098020E9F00F40F804ED0E
:100270001EF0040F02D080F3098801E080F30888A3
:1002800000B507F003FB5DF804EB4EF0040E704779
:10029000EFF3058070470000800C00207C0C0020EC
:1002A000780C002004ED00E020ED00E008ED00E017
:1002B000002301461A46184600F01AB838B50A4C11
:1002C0000A4D641BA4100AD004F18043013B05EBE6
:1002D0008305013C55F804399847002CF9D1BDE855
:1002E00038400DF029BD00BF0000000000000000F4
:1002F0002DE9F047274C074626688846D6F848413E
:1003000092469946002C3CD065681F2D1ADC05F1F9
:10031000010E7FB1012004EB8503C3F888A0D4F857
:10032000881100FA05F21143022FC4F88811C3F8AE
:10033000089120D00235C4F804E0002044F825805C
:10034000BDE8F087144B0BB34FF4C87007F0BAF850
:100350000446D8B10020D6F848314FF0010E606055
:1003600023600546C6F84841C4F88801C4F88C01EA
:10037000002FDFD0CEE7D4F88C311A43C4F88C219B
:10038000D8E706F5A674C6F84841BDE74FF0FF3040
:10039000BDE8F0878CCA0008C574000880B582B03B
:1003A00000AF03463960FB7107F024FB00BF08373C
:1003B000BD4680BD80B500AF02F0FAFC0246094B95
:1003C000A3FB02239B09184601F093FB042001F0D4
:1003D0009DFB002200214FF0FF3001F052FB00BFD7
:1003E00080BD00BFD34D621080B500AF08F0DCF8CF
:1003F00001F03EFA07F016FB08F0F6F800BF80BDEA
:1004000080B500AF07F004FB02464FF47A7303FB9C
:1004100002F3034AA2FB03239B09184680BD00BFD9
:10042000D34D621080B483B000AF786000231846CB
:100430000C37BD4680BC704780B483B000AF786095
:100440003960FEE780B582B000AF01F0FBF9002310
:100450003B603B6883F3108803F00CFB01237B6057
:100460007B6883F31088FFF7A5FF0849084809F067
:1004700031F800F09FFB01F02DF9064808F0DCFE92
:1004800007F054FB00BF0837BD4680BD0050002078
:10049000A80D0020FCAF000880B485B000AF034673
:1004A000FB71FB794F2B0FD8FA7913465B0013448D
:1004B0009B00094A1344FB60FB681B68B3F1FF3FD4
:1004C00004D10023FB6001E00023FB60FB681846B9
:1004D0001437BD4680BC7047B0CA000880B586B0EE
:1004E00000AFF860B9607A60BB68DBB21846FFF70E
:1004F000D3FF78617B69002B0AD07B6958687B69E0
:100500009B689BB27A68D2B2194602F054F800E0B8
:1005100000BF1837BD4680BD80B584B000AF78609D
:1005200039600023FB603B68DBB21846FFF7B4FF7D
:10053000B860BB68002B01D1FB680BE0BB685A6850
:10054000BB689B689BB21946104602F01DF8034633
:10055000FB60FB6818461037BD4680BD80B58AB089
:1005600000AFF860B9607A60BB68DBB21846FFF78D
:1005700093FF78627B6A002B38D07B6A9B687B6133
:100580000123BB610023FB6103233B627B68002BDB
:1005900004D10123BB610023FB611EE07B68012BBA
:1005A00004D10023BB610023FB6116E07B68022BB2
:1005B00004D10023BB610123FB610EE07B68032BA8
:1005C00004D10023BB610223FB6106E07B68042B9E
:1005D00003D11123BB610023FB617B6A5B6807F1D8
:1005E00014021146184601F0B9FD00E000BF28379B
:1005F000BD4680BD80B485B000AF78600023FB604D
:100600000CE00122FB6802FA03F31A467B689A4267
:1006100001D1FB6807E0FB680133FB60FB681F2B1F
:10062000EFDD4FF0FF3318461437BD4680BC7047EE
:1006300080B584B000AF78607868FFF7DBFFF860C2
:10064000FB68002B02DBFB680F2B01D9002303E0C2
:10065000FB689B00024A134418461037BD4680BD14
:1006600070CE000880B588B000AFF860B9607A60DD
:100670003B604FF0FF33FB61BB68DBB21846FFF70E
:100680000BFFB861BB69002B01D1062387E0BB6972
:100690009B681846FFF7AEFFF861FB69002B02DB91
:1006A000FB690F2B01D9062379E0FFF781FD786103
:1006B0003D49FA6913465B0013449B000B44B3F9B0
:1006C00000301A46BB689A4229D13749FA69134665
:1006D0005B0013449B000B4404331A683B689A4246
:1006E0001DD13149FA6913465B0013449B000B444A
:1006F00002331B881A467B689A4210D12A49FA694C
:1007000013465B0013449B000B4408331A68BB6A12
:100710009A4204D17869FFF74FFD00233FE0224958
:10072000FA6913465B0013449B000B44B3F9003095
:10073000B3F1FF3F04D07869FFF73EFD07232EE0B9
:10074000BB6818B21849FA6913465B0013449B0052
:100750000B4402461A801449FA6913465B0013449D
:100760009B000B4404333A681A607B6898B20E49C8
:10077000FA6913465B0013449B000B4402330246A4
:100780001A800949FA6913465B0013449B000B4425
:100790000833BA6A1A607869FFF70EFD002318461D
:1007A0002037BD4680BD00BF3004002080B586B034
:1007B00000AF786039604FF0FF337B613B68DBB29C
:1007C0001846FFF769FE38613B69002B01D106230B
:1007D0004DE03B699B681846FFF70CFF78617B6929
:1007E000002B02DB7B690F2B01D906233FE0FFF7CB
:1007F000DFFCF86020497A6913465B0013449B00D4
:100800000B44B3F90030B3F1FF3F04D1F868FFF7B0
:10081000D3FC00232BE018497A6913465B0013448C
:100820009B000B444FF6FF721A8013497A691346F6
:100830005B0013449B000B44043300221A600E49F2
:100840007A6913465B0013449B000B440233002279
:100850001A8009497A6913465B0013449B000B44D4
:10086000083300221A60F868FFF7A6FC0023184638
:100870001837BD4680BD00BF3004002080B58CB065
:1008800000AFF860B9607A604FF0FF33FB62BB687D
:10089000DBB21846FFF700FEB862BB6A002B01D13D
:1008A0000623CBE07B68012B6BD1BB6A9B681846A3
:1008B000FFF7A0FEF862FB6A002B02DBFB6A0F2B3E
:1008C00001D90623BAE0FFF773FC78625D49FA6A42
:1008D00013465B0013449B000B44B3F90030B3F1A3
:1008E000FF3F04D1786AFFF767FC0623A6E0FB6AA6
:1008F0009B00554A13443B62BB6A9B683B610323E0
:10090000FB615049FA6A13465B0013449B000B4499
:1009100002331B88012B08D0022B0BD0002B0ED1E9
:100920000223BB61494B7B6109E00123BB61484B5A
:100930007B6104E00023BB61464B7B6100BFBB6A67
:100940005B6807F110021146184601F007FC3B6A8C
:1009500093F9023000220521184601F092F83B6A13
:1009600093F90230184601F0A8F83B6A1B881A4632
:10097000394B1B681343384A1360786AFFF71CFC35
:100980005BE07B68002B55D1BB6A9B681846FFF77C
:100990004FFE38623B6A002B01D106234EE0FFF781
:1009A00007FC7862BB6A5A68BB6A9B6819461046A6
:1009B00001F02EFD3B6A1B88DB431A46264B1B6861
:1009C0001340254A13603B6A1B881F2B11D93B6AD1
:1009D0001B88B3F5007F0CD81F4B1B6803F478739A
:1009E000002B23D13B6A93F90230184601F073F8CB
:1009F0001CE03B6A1B88B3F5806F11D33B6A1B88F0
:100A0000B3F5004F0CD8144B1B6803F47C43002B48
:100A10000CD13B6A93F90230184601F05CF805E00E
:100A20003B6A93F90230184601F055F8786AFFF7EF
:100A3000C3FB02E06FF0050300E0002318463037E7
:100A4000BD4680BD3004002070CE000800001110AB
:100A50000000211000003110C807002080B582B0CE
:100A600000AF786011497A6813465B0013449B001D
:100A70000B4404331B68002B13D00C497A681346CF
:100A80005B0013449B000B440433196807487A68E1
:100A900013465B0013449B00034408331B6818464D
:100AA000884700BF0837BD4680BD00BF3004002026
:100AB00080B582B000AF0346FB80FB881846FFF785
:100AC00099FD03461846FFF7C9FF00BF0837BD462A
:100AD00080BD80B500AF07F067FD012001F084FD07
:100AE00007F082FD00BF80BD80B500AF07F05CFD60
:100AF000022001F079FD07F077FD00BF80BD80B5D1
:100B000000AF07F051FD042001F06EFD07F06CFD11
:100B100000BF80BD80B500AF07F046FD082001F0A2
:100B200063FD07F061FD00BF80BD80B500AF07F039
:100B30003BFD102001F058FD07F056FD00BF80BDC1
:100B400080B500AF07F030FD202001F04DFD4020C2
:100B500001F04AFD802001F047FD4FF4807001F064
:100B600043FD4FF4007001F03FFD07F03DFD00BF75
:100B700080BD80B500AF07F017FD4FF4806001F035
:100B800033FD4FF4006001F02FFD4FF4805001F071
:100B90002BFD4FF4005001F027FD4FF4804001F091
:100BA00023FD4FF4004001F01FFD07F01DFD00BFC5
:100BB00080BD000080B586B000AF234A224B9B6900
:100BC00043F004039361204B9B6903F004037B61B2
:100BD0007B691D4A1C4B9B6943F0080393611A4BC8
:100BE0009B6903F008033B613B69174A164B9B69FD
:100BF00043F010039361144B9B6903F01003FB60F7
:100C0000FB68114A104B9B6943F0200393610E4B24
:100C10009B6903F02003BB60BB680B4A0A4B9B69CE
:100C200043F040039361084B9B6903F040037B60F2
:100C30007B6800220549064802F0F2FF0346184689
:100C40001837BD4680BD00BF00100240B0CE00087E
:100C500004B0000880B483B000AF0346FB7197F97D
:100C60000730002B0BDB084997F907305B09FA794D
:100C700002F01F02012000FA02F241F8232000BF17
:100C80000C37BD4680BC704700E100E080B483B003
:100C900000AF0346FB7197F90730002B10DB0B49BF
:100CA00097F907305B09FA7902F01F02012000FA78
:100CB00002F2203341F82320BFF34F8FBFF36F8F31
:100CC00000BF0C37BD4680BC704700BF00E100E0AC
:100CD00080B584B000AF786039607B68002B04D1A8
:100CE00066223F493F4808F04FFB3B68002B04D188
:100CF00067223B493C4808F047FB7B68D43BFB60DC
:100D0000FB681B6C5A68FB681A603B681A68FB68D2
:100D10005A60FB6800229A61FB680C225A61FB68EA
:100D20000022DA613B681B79C3F30303DBB2082BB3
:100D300002D0092B04D008E0FB6800229A6008E08A
:100D4000FB684FF480529A6003E0FB6800229A60CF
:100D500000BF3B681B79C3F30113DBB2002B02D049
:100D6000012B04D008E0FB680022DA6008E0FB6891
:100D70004FF40052DA6003E0FB680022DA6000BF43
:100D80003B681B79C3F38113DBB2012B07D0022B25
:100D90000AD0002B0DD1FB6800221A610DE0FB6820
:100DA0004FF4C0621A6108E0FB684FF480621A6178
:100DB00003E0FB6800221A6100BFFB680022C3F851
:100DC0008820FB68184602F043F80346002B02D047
:100DD0004FF0FF3300E0002318461037BD4680BDBA
:100DE000DCCE000810B0000824B0000880B586B042
:100DF00000AFF860B9607A607B687B61FB68002BAC
:100E000004D1AD225349544808F0BEFAFB68D43BE4
:100E10003B61BB68033B0E2B00F2978001A252F8A6
:100E200023F000BF210F00082B0F00084B0F000814
:100E30004B0F00084B0F00084B0F00084B0F00082A
:100E40004B0F00084B0F00084B0F00084B0F00081A
:100E50004B0F00084B0F0008010F0008610E00083F
:100E60003B691B6C93F908301846FFF70FFF3B698D
:100E70001B683A691268D26822F02002DA607B6946
:100E8000B3F5007F22D13B691B6CDB6893F9083016
:100E9000184600F020FE3B694433184600F067FF17
:100EA0000346002B04D0C0222A492C4808F06CFAD3
:100EB0003B694433184600F09FFE0346002B41D0A7
:100EC000C5222449254808F05FFA3BE07B69B3F569
:100ED000006F37D13B691B6C1B6993F908301846CA
:100EE00000F0F9FD3B698C33184600F085FE03469F
:100EF000002B27D0CD221749184808F045FA21E0E9
:100F00003B691B6C93F908301846FFF7A3FE3B6959
:100F10001B683A691268D26842F02002DA6014E075
:100F20007969F86800F058FA0FE03B69184601F05B
:100F3000DCFF0346002B07D0E4220649074808F0EF
:100F400023FA01E000BF00E000BF00231846183775
:100F5000BD4680BDECCE000810B0000834B00008DB
:100F600080B584B000AF78600B46FB707B68002BC7
:100F700004D1EF220E490F4808F006FA7B68D43BF3
:100F8000FB60FB681B686FF040021A60FB681B681F
:100F9000FA785A6000BFFB681B681B6803F04003C7
:100FA000402BF8D1012318461037BD4680BD00BF45
:100FB000FCCE000810B0000880B584B000AF7860A7
:100FC0007B68002B05D14FF481720D490D4808F064
:100FD000DBF97B68D43BBB604FF0FF33FB60BB6841
:100FE0001B681B6803F02003202B04D1BB681B681F
:100FF0005B68DBB2FB60FB6818461037BD4680BDFE
:1010000008CF000810B0000880B586B000AFF860C7
:10101000B9607A603B60FB68002B05D14FF48B729E
:101020001549164808F0B0F9BB68002B05D140F20D
:1010300017121149124808F0A7F9FB68D43B7B61ED
:101040007B68002B01D1002311E03B68022B0DD1FE
:101050007B697A6892B2B968184601F073FF03465B
:10106000002B01D17B6802E0002300E0002318463A
:101070001837BD4680BD00BF14CF000810B000086F
:1010800038B0000880B58CB000AF78607B68002B6A
:1010900005D14FF49D728449844808F075F97B6846
:1010A000D43BFB62FB6A1B681B6803F02003202B08
:1010B0000BD1FB6A1B68DB6803F02003002B04D014
:1010C0000121786803F0BCFDE9E0FB6AB3F8D03099
:1010D000002B3FD0FB6A1B681B6803F01003102B2A
:1010E00038D1FB6A1B68DB6803F01003002B31D09A
:1010F000FFF75EF8B8627B689B6CC3F38F239BB2EB
:101100001A46FB6A5B6C5B68D31A7B62FB6AD3F896
:1011100088307A6AD31A3B62FB6A7A6AC3F88820FD
:10112000B86AFFF749F83B6A002B07D03B6A1B02FD
:1011300043F003031946786803F082FD0023FB6146
:10114000FB6A1B681B68FB61FB6A1B685B68FB61D1
:10115000FB69A4E0FB6A1B681B6803F04003402B9B
:1011600016D1FB6A1B68DB6803F04003002B0FD02D
:101170007B681B8B03F40063002B03D0FB6A1846CB
:1011800001F0CCFFFB6A1B686FF040021A6086E03A
:10119000FB6A1B681B6803F00803082B0AD10023B5
:1011A000BB61FB6A1B681B68BB61FB6A1B685B68F1
:1011B000BB61BB69FB6A1B681B6803F00403042B5B
:1011C0000AD100237B61FB6A1B681B687B61FB6A99
:1011D0001B685B687B617B69FB6A1B681B6803F0AB
:1011E0000203022B0AD100233B61FB6A1B681B68C8
:1011F0003B61FB6A1B685B683B613B69FB6A1B6880
:101200001B6803F00103012B0AD10023FB60FB6A7A
:101210001B681B68FB60FB6A1B685B68FB60FB6804
:10122000FB6A1B681B6803F48073B3F5807F04D1ED
:10123000FB6A1B686FF480721A60FB6A1B681B688C
:1012400003F40073B3F5007F04D1FB6A1B686FF4ED
:1012500000721A60FB6A1B681B6803F08003802B16
:1012600004D1FB6A1B686FF080021A60FB6A1B687E
:101270001B6803F04003402B04D1FB6A1B686FF02E
:1012800040021A60FB6A1B681B6803F02003202BD6
:1012900005D1FB6A1B686FF020021A60FFE700BFF0
:1012A0003037BD4680BD00BF28CF000810B0000811
:1012B00080B586B000AF78607B68002B05D140F226
:1012C00091122749274808F05FF87B68D43B3B61BF
:1012D0003B695B6C1B6803F00203022B06D03B6981
:1012E0005B6C1B6803F00403042B34D1FEF760FF32
:1012F000F8607B689B6CC3F38F239BB21A463B69F3
:101300005B6C5B68D31ABB60BB68002B0BD17B683E
:101310009B6CC3F38F239BB21A463B69D3F888308A
:10132000D31A7B6105E03B69D3F88830BA68D31AD9
:101330007B613B69BA68C3F88820F868FEF73CFF18
:101340007B69002B07D07B691B0243F0030319461E
:10135000786803F075FC00BF1837BD4680BD00BF3C
:1013600034CF000810B0000880B500AF07F01CF9BA
:101370000348FFF787FE07F037F900BF80BD00BFC5
:10138000A008002080B500AF07F00EF9034800F078
:10139000A5FD07F029F900BF80BD00BF100800209F
:1013A00080B400AF094B0022A3F8D020074BB3F85C
:1013B000D03043F400739AB2044BA3F8D020044B0E
:1013C000044ADA6000BFBD4680BC7047CC070020ED
:1013D000F00400200405002080B588B000AF7860DC
:1013E00039607B68002B05D140F24D326A496B4869
:1013F00007F0CAFF7B68D43B7B613B68B3F5007F95
:1014000007D17B694433FB617B691B6CDB68BB6183
:101410000AE03B68B3F5006F06D17B698C33FB6152
:101420007B691B6C1B69BB6100233B615C495C4BA6
:101430005A69BB695B6813434B61594B5A69BB6975
:101440005B6813403B613B68B3F5007F08D17B6963
:1014500003F144027B695A637A697B699A660CE0FE
:101460003B68B3F5006F08D17B6903F18C027B699F
:101470001A637A697B69C3F8B020BB691A68FB6993
:101480001A60FB6900229A60FB698022DA60FB69BE
:1014900000221A61FB6900225A613B68B3F5007FA4
:1014A00006D1FB6900225A60FB6920229A6109E09B
:1014B0003B68B3F5006F05D1FB6910225A60FB69E8
:1014C00000229A61FB694FF48052DA61F86900F0FA
:1014D00093FB0346002B05D040F29B322E49314846
:1014E00007F052FFF86900F02DFB0346002B05D0F2
:1014F0004FF4687228492B4807F046FF3B68B3F564
:10150000007F26D17B68DB6CFB607869FB6819681B
:101510007B689B6CC3F38F239BB21A4601F07EFD60
:101520000346002B05D040F2AB321B491D4807F0A3
:101530002BFF7B691B687A691268526922F00102ED
:101540005A617B691B687A691268D26842F010029E
:10155000DA60BB6993F9083000220021184600F0D8
:1015600090FABB6993F90830184600F0A6FA7B6937
:101570001B6C93F9083000220121184600F081FA13
:101580007B691B6C93F90830184600F096FA00BF8F
:101590002037BD4680BD00BF3CCF000810B000081A
:1015A0000010024034B0000880B584B000AF78600D
:1015B0007B68002B05D140F2C5320549054807F08C
:1015C000E3FE7B68FB6000BF1037BD4680BD00BFF7
:1015D00050CF000848B0000880B584B000AF7860F4
:1015E0007B68002B05D140F2D5320749074807F048
:1015F000CBFE7B68FB60FB68D4331846FFF758FED0
:1016000000BF1037BD4680BD68CF000848B0000855
:1016100080B584B000AF78607B68002B05D14FF4B3
:1016200079720749074807F0AFFE7B68FB60FB68EB
:10163000D4331846FFF73CFE00BF1037BD4680BDCF
:1016400080CF000848B0000880B586B000AF786051
:101650007B68002B05D140F2EF320E490E4807F0AF
:1016600093FE7B68D43B7B61FEF7A2FD38617B690A
:10167000D3F88C305B68FB603869FEF79DFDFB6832
:10168000002B03D10421786803F0DAFA00BF183781
:10169000BD4680BD9CCF000810B0000880B584B066
:1016A00000AF78607B68002B05D140F20642074905
:1016B000074807F069FE7B68FB60FB68D433184677
:1016C000FFF7C2FF00BF1037BD4680BDB0CF000896
:1016D00048B0000890B587B000AF0123FB60394ADD
:1016E0003B1D92E8030083E8030000237B61FFF7C2
:1016F00057FE00233B615CE03A6913469B001344AC
:101700009B00314A1A4431493B694FF4947000FB05
:1017100003F30B4440331A602C4A3B694FF4947135
:1017200001FB03F3134403F58A73294A1A60274A1D
:101730003B694FF4947101FB03F3134403F58C737D
:101740001A463B1D93E8030082E803003B694FF40F
:10175000947202FB03F3D0331C4A1344181D1B4A36
:101760003B694FF4947101FB03F3134440331B684E
:101770001C68164A3B694FF4947101FB03F3134450
:10178000D0331B8843F4A06343F003039BB21A4693
:101790000023214603F006FA78617B69002B05D00F
:1017A00040F22B420B490C4807F0EEFD3B69013338
:1017B0003B613A69FB689A429ED37B6918461C37A5
:1017C000BD4690BD6CB00008F0040020CC0700209E
:1017D000C8CE0008C8CF000858B0000880B400AFD9
:1017E000154A154B1B6843F0010313601249124B55
:1017F0005A68124B13404B600F4A0F4B1B6823F083
:10180000847323F4803313600B4A0B4B1B6823F45F
:1018100080231360084A084B5B6823F4FE0353607F
:10182000054B4FF41F029A60054B4FF000629A601F
:1018300000BFBD4680BC7047001002400000FFF8AA
:1018400000ED00E080B500AF084A084B1B6843F08C
:1018500010031360032000F009F90020FEF7E2FDF9
:1018600002F06CF80023184680BD00BF0020024043
:1018700080B400AF054B1B781A46054B1B68134418
:10188000034A136000BFBD4680BC704718050020A6
:10189000700C002080B485B000AF78607B6803F0E6
:1018A0000703FB600C4BDB68BB60BA684FF6FF03B5
:1018B0001340BB60FB681A02BB68134343F0BF636D
:1018C00043F40033BB60044ABB68D36000BF1437E5
:1018D000BD4680BC704700BF00ED00E080B400AFA3
:1018E000044BDB681B0A03F007031846BD4680BCA7
:1018F000704700BF00ED00E080B483B000AF034646
:10190000FB7197F90730002B0BDB084997F907307B
:101910005B09FA7902F01F02012000FA02F241F895
:10192000232000BF0C37BD4680BC704700E100E0BB
:1019300080B483B000AF0346FB7197F90730002BEA
:1019400010DB0B4997F907305B09FA7902F01F02A7
:10195000012000FA02F2203341F82320BFF34F8F19
:10196000BFF36F8F00BF0C37BD4680BC704700BF10
:1019700000E100E080B483B000AF03463960FB7142
:1019800097F90730002B0ADB0D4997F907303A68C1
:10199000D2B21201D2B20B4483F800230AE0094903
:1019A000FB7903F00F03043B3A68D2B21201D2B2C2
:1019B0000B441A7600BF0C37BD4680BC704700BF91
:1019C00000E100E000ED00E080B489B000AFF86015
:1019D000B9607A60FB6803F00703FB61FB69C3F140
:1019E0000703042B28BF0423BB61FB690433062BC8
:1019F00002D9FB69033B00E000237B610122BB6944
:101A000002FA03F35A1EBB681A407B699A4001210F
:101A10007B6901FA03F3591E7B680B401343184698
:101A20002437BD4680BC704780B582B000AF786077
:101A30007B68013BB3F1807F01D301230FE00A4AA9
:101A40007B68013B53600F214FF0FF30FFF792FF9F
:101A5000054B00229A60044B07221A6000231846A7
:101A60000837BD4680BD00BF10E000E080B582B001
:101A700000AF78607868FFF70DFF00BF0837BD46FC
:101A800080BD80B586B000AF0346B9607A60FB7355
:101A900000237B61FFF722FF78617A68B968786973
:101AA000FFF792FF024697F90F3011461846FFF7ED
:101AB00061FF00BF1837BD4680BD80B582B000AF62
:101AC0000346FB7197F907301846FFF715FF00BF73
:101AD0000837BD4680BD80B582B000AF0346FB71BC
:101AE00097F907301846FFF723FF00BF0837BD46B8
:101AF00080BD80B582B000AF78607868FFF794FF52
:101B0000034618460837BD4680BD000080B483B048
:101B100000AF78607B68042B06D1094A084B1B682C
:101B200043F00403136005E0054A054B1B6823F0EE
:101B30000403136000BF0C37BD4680BC704700BF74
:101B400010E000E080B485B000AF78600023FB6057
:101B50007B68002B01D1012343E07B681B681A4698
:101B6000224B1344224AA2FB03231B099A007B68E1
:101B70001A647B681F4ADA637B68022283F821209B
:101B80007B681B681B68FB60FB6823F47F5323F0B2
:101B90003003FB607B685A687B689B681A437B68EC
:101BA000DB681A437B681B691A437B685B691A43CD
:101BB0007B689B691A437B68DB691343FA681343AC
:101BC000FB607B681B68FA681A607B6800229A6376
:101BD0007B68012283F821207B68002283F8202083
:101BE000002318461437BD4680BC7047F8FFFDBF80
:101BF000CDCCCCCC0000024080B483B000AF786084
:101C00007B68002B01D1012346E07B681B687A6862
:101C10001268126822F001021A607B681B680022B9
:101C20001A607B681B6800225A607B681B68002270
:101C30009A607B681B680022DA607B681B681A4622
:101C4000184B1344184AA2FB03231B099A007B6814
:101C50001A647B68154ADA637B68DB6B7A68126CFE
:101C6000012101FA02F25A607B6800229A627B68C5
:101C70000022DA627B6800221A637B6800225A63C2
:101C80007B6800229A637B68002283F821207B68AE
:101C9000002283F82020002318460C37BD4680BC64
:101CA000704700BFF8FFFDBFCDCCCCCC0000024098
:101CB00080B586B000AFF860B9607A603B60002301
:101CC000FB75FB6893F82030012B01D102234AE019
:101CD000FB68012283F82020FB6893F82130012B58
:101CE0003AD1FB68022283F82120FB6800229A6324
:101CF000FB681B68FA681268126822F001021A6019
:101D00003B687A68B968F86800F0FAF9FB68DB6A42
:101D1000002B08D0FB681B68FA681268126842F052
:101D20000E021A600FE0FB681B68FA6812681268FE
:101D300022F004021A60FB681B68FA6812681268D5
:101D400042F00A021A60FB681B68FA68126812689F
:101D500042F001021A6005E0FB68002283F82020AF
:101D60000223FB75FB7D18461837BD4680BD80B445
:101D700085B000AF78600023FB737B6893F8213057
:101D8000022B08D07B6804229A637B68002283F8C8
:101D90002020012320E07B681B687A6812681268A3
:101DA00022F00E021A607B681B687A68126812685B
:101DB00022F001021A607B68DB6B7A68126C0121E9
:101DC00001FA02F25A607B68012283F821207B68C5
:101DD000002283F82020FB7B18461437BD4680BCC8
:101DE0007047000080B584B000AF78600023FB73BB
:101DF0007B6893F82130022B05D07B6804229A631C
:101E00000123FB7357E07B681B687A6812681268CD
:101E100022F00E021A607B681B687A6812681268EA
:101E200022F001021A60264A7B681B681946254B7E
:101E300099422ED07B681B681946234B994226D0C5
:101E40007B681B681946214B99421DD07B681B6833
:101E500019461F4B994214D07B681B6819461D4BCD
:101E600099420BD07B681B6819461B4B994202D1E3
:101E70004FF480130EE04FF080730BE04FF480338B
:101E800008E04FF4805305E04FF4807302E0102324
:101E900000E0012353607B68012283F821207B68E6
:101EA000002283F820207B685B6B002B03D07B68CB
:101EB0005B6B78689847FB7B18461037BD4680BD42
:101EC00000000240080002401C00024030000240B6
:101ED00044000240580002406C00024080B584B0CB
:101EE00000AF78607B68DB6B1B68FB607B681B68FE
:101EF0001B68BB607B681B6C04229A40FB68134024
:101F0000002B55D0BB6803F00403002B50D07B6836
:101F10001B681B6803F02003002B07D17B681B683C
:101F20007A681268126822F004021A606D4A7B68AF
:101F30001B6819466C4B99422ED07B681B6819466A
:101F40006A4B994226D07B681B681946684B9942B8
:101F50001DD07B681B681946664B994214D07B687C
:101F60001B681946644B99420BD07B681B68194665
:101F7000624B994202D14FF480030EE04FF0806330
:101F80000BE04FF4802308E04FF4804305E04FF46A
:101F9000806302E0402300E0042353607B68DB6A37
:101FA000002B00F09A807B68DB6A7868984794E0A1
:101FB0007B681B6C02229A40FB681340002B5CD0AC
:101FC000BB6803F00203002B57D07B681B681B68BB
:101FD00003F02003002B0BD17B681B687A68126822
:101FE000126822F00A021A607B68012283F821201D
:101FF0003C4A7B681B6819463B4B99422ED07B6854
:102000001B681946394B994226D07B681B681946D4
:10201000374B99421DD07B681B681946354B994256
:1020200014D07B681B681946334B99420BD07B68F0
:102030001B681946314B994202D14FF400130EE050
:102040004FF000730BE04FF4003308E04FF40053FF
:1020500005E04FF4007302E0202300E00223536008
:102060007B68002283F820207B689B6A002B34D099
:102070007B689B6A786898472FE07B681B6C082216
:102080009A40FB681340002B28D0BB6803F008037C
:10209000002B23D07B681B687A681268126822F0D4
:1020A0000E021A607B68DB6B7A68126C012101FA00
:1020B00002F25A607B6801229A637B68012283F8EE
:1020C00021207B68002283F820207B681B6B002B7B
:1020D00004D07B681B6B7868984700BF00BF10373F
:1020E000BD4680BD00000240080002401C000240C6
:1020F0003000024044000240580002406C000240A0
:1021000080B485B000AFF860B9607A603B60FB686E
:10211000DB6BFA68126C012101FA02F25A60FB686B
:102120001B683A685A60FB685B68102B08D1FB6833
:102130001B687A689A60FB681B68BA68DA6007E017
:10214000FB681B68BA689A60FB681B687A68DA608B
:1021500000BF1437BD4680BC7047000080B48BB010
:1021600000AF7860396000237B6200233B6227E187
:1021700001227B6A02FA03F3FB613B681A68FB6980
:102180001340BB61BA69FB699A4240F016813B6813
:102190005B68122B34D0122B0DD8022B2BD0022BC4
:1021A00004D8002B31D0012B1CD048E0032B43D0A6
:1021B000112B1BD043E0894A934226D0874A934291
:1021C00006D8874A934220D0864A93421DD036E0F3
:1021D000854A934219D0854A934216D0844A934245
:1021E00013D02CE03B68DB683B6228E03B68DB688F
:1021F00004333B6223E03B68DB6808333B621EE04C
:102200003B68DB680C333B6219E03B689B68002B42
:1022100002D104233B6212E03B689B68012B05D18D
:1022200008233B627B68FA691A6108E008233B6275
:102230007B68FA695A6102E000233B6200BFBB6918
:10224000FF2B01D87B6801E07B6804337B61BB69AD
:10225000FF2B02D87B6A9B0002E07B6A083B9B0055
:102260003B617B691A680F213B6901FA03F3DB4389
:102270001A40396A3B6901FA03F31A437B691A6011
:102280003B685B6803F08053002B00F09680594A4E
:10229000584B9B6943F001039361564B9B6903F0D4
:1022A0000103BB60BB68544A7B6A9B08023352F847
:1022B0002330FB607B6A03F003039B000F2202FACA
:1022C00003F3DB43FA681340FB607B684B4A93429D
:1022D00013D07B684A4A93420DD07B68494A9342A7
:1022E00007D07B68484A934201D1032306E00423C8
:1022F00004E0022302E0012300E000237A6A02F0F6
:10230000030292009340FA681343FB603A497B6AE8
:102310009B080233FA6841F823203B685B6803F4AA
:102320008033002B06D03949384B1A68BB691343F8
:102330000B6006E03549354B1A68BB69DB43134037
:102340000B603B685B6803F40033002B06D02F4919
:102350002E4B5A68BB6913434B6006E02B492B4B4D
:102360005A68BB69DB4313404B603B685B6803F40E
:102370008013002B06D02549244B9A68BB69134370
:102380008B6006E02149214B9A68BB69DB4313400F
:102390008B603B685B6803F40013002B06D01B497D
:1023A0001A4BDA68BB691343CB6006E01749174B39
:1023B000DA68BB69DB431340CB607B6A01337B6225
:1023C0003B681A687B6A22FA03F3002B7FF4D0AED5
:1023D00000BF2C37BD4680BC704700BF00002110F5
:1023E0000000111000001210000031100000321027
:1023F00000002210001002400000014000080140CF
:10240000000C014000100140001401400004014094
:1024100080B489B000AF786039600023FB619AE036
:102420000122FB699A403B681340BB61BB69002BEA
:1024300000F08E804E4AFB699B08023352F823302D
:102440007B61FB6903F003039B000F2202FA03F395
:102450007A6913407B617B68464A934213D07B685C
:10246000454A93420DD07B68444A934207D07B682B
:10247000434A934201D1032306E0042304E00223EC
:1024800002E0012300E00023FA6902F00302920057
:1024900003FA02F27B699A4232D1FB6903F003032B
:1024A0009B000F2202FA03F37B613148FB699B0812
:1024B0002F49FA699208023251F822107A69D24300
:1024C0000A40023340F823202E492E4B1A68BB697C
:1024D000DB4313400B602B492A4B5A68BB69DB4333
:1024E00013404B602749274B9A68BB69DB43134075
:1024F0008B602449234BDA68BB69DB431340CB6014
:10250000BB69FF2B01D87B6801E07B6804333B612A
:10251000BB69FF2B02D8FB699B0002E0FB69083B0B
:102520009B00FB603B691A680F21FB6801FA03F30B
:10253000DB431A400421FB6801FA03F31A433B69A9
:102540001A607B68DA68BB69DB431A407B68DA6033
:10255000FB690133FB613A68FB6922FA03F3002B44
:102560007FF45EAF00BF2437BD4680BC704700BF1C
:102570000000014000080140000C01400010014033
:10258000001401400004014080B485B000AF7860C1
:102590000B467B807B689A687B881340002B02D0B7
:1025A0000123FB7301E00023FB73FB7B1846143708
:1025B000BD4680BC704780B483B000AF78600B46E6
:1025C0007B8013467B707B78002B03D07A887B68F6
:1025D0001A6103E07B881A047B681A6100BF0C371C
:1025E000BD4680BC7047000080B582B000AF034696
:1025F000FB80084B5A69FB881340002B06D0054A24
:10260000FB885361FB881846FEF752FA00BF083773
:10261000BD4680BD0004014080B586B000AF786043
:102620007B68002B01D101236CE27B681B6803F0FF
:102630000103002B00F08780924B5B6803F00C03D2
:10264000042B0CD08F4B5B6803F00C03082B12D1CA
:102650008C4B5B6803F48033B3F5803F0BD1894B1F
:102660001B6803F40033002B6CD07B685B68002B85
:1026700068D1012346E27B685B68B3F5803F06D1F1
:10268000804A804B1B6843F4803313602EE07B68E4
:102690005B68002B0CD17B4A7A4B1B6823F4803398
:1026A0001360784A774B1B6823F4802313601DE086
:1026B0007B685B68B3F5A02F0CD1724A714B1B6825
:1026C00043F4802313606F4A6E4B1B6843F48033DE
:1026D00013600BE06B4A6B4B1B6823F48033136071
:1026E000684A684B1B6823F4802313607B685B682F
:1026F000002B13D0FDF784FE386108E0FDF780FE63
:1027000002463B69D31A642B01D90323FAE15D4BDE
:102710001B6803F40033002BF0D014E0FDF770FECB
:10272000386108E0FDF76CFE02463B69D31A642B62
:1027300001D90323E6E1534B1B6803F40033002B5C
:10274000F0D100E000BF7B681B6803F00203002BA0
:1027500063D04C4B5B6803F00C03002B0BD0494B50
:102760005B6803F00C03082B1CD1464B5B6803F439
:102770008033002B16D1434B1B6803F00203002B60
:1027800005D07B681B69012B01D00123BAE13D49CB
:102790003C4B1B6823F0F8027B685B69DB0013434A
:1027A0000B603AE07B681B69002B20D0364B01227E
:1027B0001A60FDF725FE386108E0FDF721FE0246AC
:1027C0003B69D31A022B01D903239BE12D4B1B68D4
:1027D00003F00203002BF0D02A492A4B1B6823F098
:1027E000F8027B685B69DB0013430B6015E0264B46
:1027F00000221A60FDF704FE386108E0FDF700FED4
:1028000002463B69D31A022B01D903237AE11D4BFF
:102810001B6803F00203002BF0D17B681B6803F0F8
:102820000803002B3AD07B689B69002B19D0174B0B
:1028300001221A60FDF7E4FD386108E0FDF7E0FDD4
:1028400002463B69D31A022B01D903235AE10D4BEF
:102850005B6A03F00203002BF0D0012000F0DAFAEB
:102860001CE00A4B00221A60FDF7CAFD38610FE038
:10287000FDF7C6FD02463B69D31A022B08D9032394
:1028800040E100BF0010024000004242800442428A
:102890009E4B5B6A03F00203002BE9D17B681B6847
:1028A00003F00403002B00F0A6800023FB75974B78
:1028B000DB6903F08053002B0DD1944A934BDB6905
:1028C00043F08053D361914BDB6903F08053BB60CD
:1028D000BB680123FB758E4B1B6803F48073002BD0
:1028E00018D18B4A8A4B1B6843F480731360FDF741
:1028F00087FD386108E0FDF783FD02463B69D31A86
:10290000642B01D90323FDE0814B1B6803F4807322
:10291000002BF0D07B68DB68012B06D17B4A7B4B18
:102920001B6A43F0010313622DE07B68DB68002B18
:102930000CD1764A754B1B6A23F001031362734A6C
:10294000724B1B6A23F0040313621CE07B68DB6894
:10295000052B0CD16D4A6D4B1B6A43F004031362C7
:102960006A4A6A4B1B6A43F0010313620BE0674A31
:10297000664B1B6A23F001031362644A634B1B6AB4
:1029800023F0040313627B68DB68002B15D0FDF78E
:1029900037FD38610AE0FDF733FD02463B69D31A83
:1029A00041F28832934201D90323ABE0574B1B6AB3
:1029B00003F00203002BEED014E0FDF721FD386197
:1029C0000AE0FDF71DFD02463B69D31A41F2883249
:1029D000934201D9032395E04C4B1B6A03F0020399
:1029E000002BEED1FB7D012B05D1484A474BDB691B
:1029F00023F08053D3617B68DB69002B00F081807A
:102A0000424B5B6803F00C03082B61D07B68DB69E9
:102A1000022B46D13F4B00221A60FDF7F1FC3861D2
:102A200008E0FDF7EDFC02463B69D31A022B01D901
:102A3000032367E0354B1B6803F00073002BF0D1D4
:102A40007B681B6AB3F5803F08D130492F4B5B6828
:102A500023F400327B689B6813434B602B482B4B5D
:102A60005B6823F474127B68196A7B685B6A0B43AA
:102A700013434360274B01221A60FDF7C1FC386104
:102A800008E0FDF7BDFC02463B69D31A022B01D9D1
:102A9000032337E01D4B1B6803F00073002BF0D0BD
:102AA0002FE01C4B00221A60FDF7AAFC386108E0F9
:102AB000FDF7A6FC02463B69D31A022B01D903237A
:102AC00020E0124B1B6803F00073002BF0D118E0DC
:102AD0007B68DB69012B01D1012313E00B4B5B68A1
:102AE000FB60FB6803F480327B681B6A9A4206D164
:102AF000FB6803F470127B685B6A9A4201D0012381
:102B000000E0002318461837BD4680BD0010024083
:102B1000007000406000424280B584B000AF786031
:102B200039607B68002B01D10123D0E06A4B1B6820
:102B300003F007023B689A4210D26749664B1B6854
:102B400023F007023B6813430B60634B1B6803F0E1
:102B500007023B689A4201D00123B8E07B681B68FA
:102B600003F00203002B20D07B681B6803F00403F2
:102B7000002B05D0594A594B5B6843F4E06353601E
:102B80007B681B6803F00803002B05D0534A534BA6
:102B90005B6843F4605353605049504B5B6823F0CB
:102BA000F0027B689B6813434B607B681B6803F0F3
:102BB0000103002B40D07B685B68012B07D1474B9A
:102BC0001B6803F40033002B15D101237FE07B68E1
:102BD0005B68022B07D1414B1B6803F00073002B8D
:102BE00009D1012373E03D4B1B6803F00203002B66
:102BF00001D101236BE03949384B5B6823F00302B4
:102C00007B685B6813434B60FDF7FAFBF8600AE0F2
:102C1000FDF7F6FB0246FB68D31A41F28832934275
:102C200001D9032353E02D4B5B6803F00C027B6852
:102C30005B689B009A42EBD1274B1B6803F00702AD
:102C40003B689A4210D92449234B1B6823F00702A2
:102C50003B6813430B60204B1B6803F007023B6883
:102C60009A4201D0012332E07B681B6803F0040321
:102C7000002B08D01949194B5B6823F4E0627B688C
:102C8000DB6813434B607B681B6803F00803002B71
:102C900009D01249114B5B6823F460527B681B69B1
:102CA000DB0013434B6000F021F801460B4B5B68DF
:102CB0001B0903F00F030A4AD35C21FA03F3094A04
:102CC0001360094B1B681846FDF7ACFB0023184640
:102CD0001037BD4680BD00BF0020024000100240FA
:102CE000DCCF0008100500201405002090B48AB045
:102CF00000AF2A4B3C1D0FCB84E80F00284B1B88EC
:102D00003B800023FB610023BB6100237B62002327
:102D10007B6100233B62234B5B68FB61FB6903F033
:102D20000C03042B02D0082B03D02DE01E4B3B627A
:102D30002DE0FB699B0C03F00F0307F128021344FD
:102D400013F8243C7B61FB6903F48033002B13D020
:102D5000144B5B685B0C03F0010307F1280213447A
:102D600013F8283CBB617B690F4A02FB03F2BB6985
:102D7000B2FBF3F37B6204E07B690C4A02FB03F3D2
:102D80007B627B6A3B6202E0074B3B6200BF3B6AAF
:102D900018462837BD4690BC704700BF74B0000885
:102DA00084B000080010024000127A0000093D00C3
:102DB00080B400AF024B1B681846BD4680BC70470C
:102DC0001005002080B500AFFFF7F2FF0146054B6C
:102DD0005B681B0A03F00703034AD35C21FA03F381
:102DE000184680BD00100240ECCF000880B500AF4F
:102DF000FFF7DEFF0146054B5B68DB0A03F00703C4
:102E0000034AD35C21FA03F3184680BD0010024048
:102E1000ECCF000880B485B000AF78600A4B1B6827
:102E20000A4AA2FB03235B0A7A6802FB03F3FB60F6
:102E300000BFFB685A1EFA60002BF9D100BF14379F
:102E4000BD4680BC704700BF10050020D34D621006
:102E500080B582B000AF78607B68002B01D1012380
:102E60003FE07B6893F83930DBB2002B06D17B68FA
:102E7000002283F83820786800F092FD7B682422D5
:102E800083F839207B681B687A681268D26822F45C
:102E90000052DA60786800F03DFC7B681B687A6855
:102EA0001268126922F490421A617B681B687A6882
:102EB0001268526922F02A025A617B681B687A689C
:102EC0001268D26842F40052DA607B680022DA634A
:102ED0007B68202283F839207B68202283F83A20FF
:102EE000002318460837BD4680BD80B582B000AFCC
:102EF00078607B68002B01D101231EE07B682422CF
:102F000083F839207B681B687A681268D26822F4DB
:102F10000052DA60786800F08FFD7B680022DA6387
:102F20007B68002283F839207B68002283F83A20EE
:102F30007B68002283F83820002318460837BD46F6
:102F400080BD000080B586B000AFF860B960134660
:102F5000FB80FB6893F83930DBB2202B53D1BB6880
:102F6000002B02D0FB88002B01D101234CE0FB6831
:102F700093F83830012B01D1022345E0FB68012290
:102F800083F83820BA68FB681A62FB68FA889A846A
:102F9000FB68FA88DA84FB680022DA63FB68212286
:102FA00083F83920FB681B6B194A9A62FB681B6B1C
:102FB000184ADA62FB681B6B174A1A63FB681B6BC3
:102FC00000225A6307F108037B61FB68186B7B6979
:102FD0001968FB681B6804331A46FB88FEF768FE15
:102FE000FB681B686FF040021A60FB68002283F8E0
:102FF0003820FB681B68FA681268526942F0800248
:103000005A61002300E0022318461837BD4680BDF0
:1030100027330008793300081934000880B586B0DA
:1030200000AFF860B9601346FB80FB6893F83A3054
:10303000DBB2202B66D1BB68002B02D0FB88002BB3
:1030400001D101235FE0FB6893F83830012B01D1F7
:10305000022358E0FB68012283F83820BA68FB6835
:103060009A62FB68FA889A85FB680022DA63FB683B
:10307000222283F83A20FB685B6B254A9A62FB6840
:103080005B6B244ADA62FB685B6B234A1A63FB685A
:103090005B6B00225A6307F108037B61FB68586B86
:1030A000FB681B68043319467B691A68FB88FEF7C6
:1030B000FFFD00233B61FB681B681B683B61FB68ED
:1030C0001B685B683B613B69FB68002283F8382022
:1030D000FB681B68FA681268D26842F48072DA6092
:1030E000FB681B68FA681268526942F001025A6173
:1030F000FB681B68FA681268526942F040025A6124
:10310000002300E0022318461837BD4680BD00BFEB
:1031100095330008FD3300081934000880B588B0E5
:1031200000AF78607B681B681B68FB617B681B686D
:10313000DB68BB617B681B685B697B6100233B616B
:103140000023FB60FB6903F00F033B613B69002B2D
:103150000DD1FB6903F02003002B08D0BB6903F0FD
:103160002003002B03D0786800F052FACCE03B69D2
:10317000002B00F0AB807B6903F00103002B05D12D
:10318000BB6903F49073002B00F0A080FB6903F08F
:103190000103002B0AD0BB6903F48073002B05D018
:1031A0007B68DB6B43F001027B68DA63FB6903F049
:1031B0000403002B0AD07B6903F00103002B05D028
:1031C0007B68DB6B43F002027B68DA63FB6903F028
:1031D0000203002B0AD07B6903F00103002B05D00A
:1031E0007B68DB6B43F004027B68DA63FB6903F006
:1031F0000803002B0AD07B6903F00103002B05D0E4
:103200007B68DB6B43F008027B68DA637B68DB6B0F
:10321000002B78D0FB6903F02003002B07D0BB699B
:1032200003F02003002B02D0786800F0F1F97B68EE
:103230001B685B6903F04003002B14BF01230023CC
:10324000DBB2FB607B68DB6B03F00803002B02D171
:10325000FB68002B31D0786800F03DF97B681B6873
:103260005B6903F04003002B23D07B681B687A68FE
:103270001268526922F040025A617B685B6B002B36
:1032800013D07B685B6B224A5A637B685B6B184682
:10329000FEF7A8FD0346002B16D07B685B6B5B6BCB
:1032A0007A68526B104698470EE07868FEF77CF912
:1032B0000AE07868FEF778F906E07868FEF774F9B6
:1032C0007B680022DA631EE000BF1CE0FB6903F0AC
:1032D0008003002B08D0BB6903F08003002B03D0D0
:1032E000786800F029F90FE0FB6903F04003002B38
:1032F0000AD0BB6903F04003002B05D0786800F0CA
:103300006FF900BF00E000BF2037BD4680BD00BFA1
:103310001135000880B483B000AF786000BF0C376F
:10332000BD4680BC704780B584B000AF78607B68D4
:103330005B6AFB607B681B681B6803F02003002B43
:1033400013D1FB680022DA84FB681B68FA681268F4
:10335000526922F080025A61FB681B68FA681268A1
:10336000D26842F04002DA6002E0F868FEF796F9AF
:1033700000BF1037BD4680BD80B584B000AF786017
:103380007B685B6AFB60F868FFF7C4FF00BF10371B
:10339000BD4680BD80B584B000AF78607B685B6A55
:1033A000FB607B681B681B6803F02003002B1ED1A9
:1033B000FB680022DA85FB681B68FA681268D2682D
:1033C00022F48072DA60FB681B68FA68126852693E
:1033D00022F001025A61FB681B68FA6812685269A0
:1033E00022F040025A61FB68202283F83A20F868F4
:1033F000FEF7F2F800BF1037BD4680BD80B584B03F
:1034000000AF78607B685B6AFB60F868FEF700F9E4
:1034100000BF1037BD4680BD80B584B000AF786076
:103420000023FB607B685B6ABB60BB681B685B69F1
:1034300003F08003002B14BF01230023DBB2FB60E9
:10344000BB6893F83930DBB2212B08D1FB68002B25
:1034500005D0BB680022DA84B86800F027F8BB68A2
:103460001B685B6903F04003002B14BF012300239A
:10347000DBB2FB60BB6893F83A30DBB2222B08D199
:10348000FB68002B05D0BB680022DA85B86800F025
:1034900022F8BB68DB6B43F01002BB68DA63B868E4
:1034A000FEF782F800BF1037BD4680BD80B483B000
:1034B00000AF78607B681B687A681268D26822F077
:1034C000C002DA607B68202283F8392000BF0C3705
:1034D000BD4680BC704780B483B000AF78607B6825
:1034E0001B687A681268D26822F49072DA607B688E
:1034F0001B687A681268526922F001025A617B687F
:10350000202283F83A2000BF0C37BD4680BC7047AC
:1035100080B584B000AF78607B685B6AFB60FB6855
:103520000022DA85FB680022DA84F868FEF73CF8AE
:1035300000BF1037BD4680BD80B485B000AF786055
:103540007B6893F83930DBB2212B43D17B689B68D1
:10355000B3F5805F19D17B681B6AFB607B681B68D1
:10356000FA681288C2F308025A607B681B69002B54
:1035700005D17B681B6A9A1C7B681A620EE07B6827
:103580001B6A5A1C7B681A6208E07B681A687B68B1
:103590001B6A581C796808621B7853607B68DB8C57
:1035A0009BB2013B9BB27A681946D184002B0FD1A4
:1035B0007B681B687A681268D26822F08002DA6041
:1035C0007B681B687A681268D26842F04002DA6051
:1035D000002300E0022318461437BD4680BC704724
:1035E00080B582B000AF78607B681B687A6812682B
:1035F000D26822F04002DA607B68202283F839200A
:103600007868FEF74BF8002318460837BD4680BDA2
:1036100080B584B000AF78607B6893F83A30DBB255
:10362000222B71D17B689B68B3F5805F23D17B68C7
:103630009B6AFB607B681B69002B0ED17B681B6853
:103640005B689BB2C3F308039AB2FB681A807B687D
:103650009B6A9A1C7B689A6229E07B681B685B689E
:103660009BB2DBB29AB2FB681A807B689B6A5A1CD9
:103670007B689A621BE07B681B69002B0AD17B6820
:103680009B6A591C7A6891627A6812685268D2B251
:103690001A700CE07B689B6A591C7A6891627A68A0
:1036A00012685268D2B202F07F02D2B21A707B68FE
:1036B000DB8D9BB2013B9BB27A681946D185002B0A
:1036C00020D17B681B687A681268D26822F02002D9
:1036D000DA607B681B687A681268D26822F48072AC
:1036E000DA607B681B687A681268526922F001020E
:1036F0005A617B68202283F83A207868FDF76CFFD6
:10370000002302E0002300E0022318461037BD46E4
:1037100080BD000090B585B000AF78607B681B6805
:103720007A681268126922F440517A68D2680A43B2
:103730001A617B689A687B681B691A437B685B69BE
:103740001343FB607B681A687B681B68DB6823F4A3
:10375000B05323F00C03F9680B43D3607B681B68FC
:103760007A681268526922F440717A6892690A4351
:103770005A617B681B68524A93424ED1FFF736FB71
:10378000B8607B681968BA6813469B0013449A00B6
:103790001A447B685B689B00B2FBF3F3494AA2FBC7
:1037A00003235B091801BA6813469B0013449A006F
:1037B0001A447B685B689B00B2FBF3F2414BA3FBAE
:1037C00002435B09642404FB03F3D31A1B01323365
:1037D0003C4AA2FB03235B0903F0F0031844BA68D8
:1037E00013469B0013449A001A447B685B689B0055
:1037F000B2FBF3F2334BA3FB02435B09642404FBEB
:1038000003F3D31A1B0132332E4AA2FB03235B09B5
:1038100003F00F0303448B604DE0FFF7D3FAB86069
:103820007B681968BA6813469B0013449A001A44CF
:103830007B685B689B00B2FBF3F3224AA2FB032385
:103840005B091801BA6813469B0013449A001A4496
:103850007B685B689B00B2FBF3F21A4BA3FB02434D
:103860005B09642404FB03F3D31A1B013233154AAA
:10387000A2FB03235B0903F0F0031844BA68134664
:103880009B0013449A001A447B685B689B00B2FB60
:10389000F3F20C4BA3FB02435B09642404FB03F328
:1038A000D31A1B013233074AA2FB03235B0903F03F
:1038B0000F0303448B6000BF1437BD4690BD00BFAB
:1038C000003801401F85EB5180B582B000AF012365
:1038D0007B600021012000F0DDF90021022000F0D2
:1038E000D9F90021032000F0D5F91DE001210120C4
:1038F00000F0F0F90121022000F0ECF90121032091
:1039000000F0E8F9642006F015FF0021012000F026
:10391000E1F90021022000F0DDF90021032000F090
:10392000D9F9642006F006FF7B685A1C7A60002BE8
:10393000DCD1002318460837BD4680BD80B485B071
:1039400000AF154A144B9B6943F001039361124B7E
:103950009B6903F00103BB60BB680F4A0E4BDB6938
:1039600043F08053D3610C4BDB6903F080537B60E1
:103970007B680A4B5B68FB60FB6823F0E063FB60DD
:10398000FB6843F00073FB60044AFB68536000BFB0
:103990001437BD4680BC7047001002400000014053
:1039A00080B588B000AF786007F1100300221A607C
:1039B0005A609A60DA607B681B681C4A934231D176
:1039C0001B4A1B4B9B6943F480439361184B9B69D3
:1039D00003F48043FB60FB68154A154B9B6943F079
:1039E00004039361124B9B6903F00403BB60BB6843
:1039F0004FF400733B6102237B610323FB6107F1FA
:103A0000100319460B48FEF7A9FB4FF480633B6196
:103A100000237B610023BB6107F1100319460548B1
:103A2000FEF79CFB00BF2037BD4680BD003801403B
:103A3000001002400008014080B582B000AF7860FD
:103A40007B681B68084A93420AD1084A074B9B6966
:103A500023F4804393614FF4C0610548FEF7D8FC1E
:103A600000BF0837BD4680BD00380140001002404D
:103A70000008014080B590B000AF07F1180328227C
:103A80000021184604F004FE3B1D00221A605A6013
:103A90009A60DA601A610123BB614FF48033FB61E5
:103AA00000233B620123BB6202237B634FF480331C
:103AB000BB634FF4E013FB6307F118031846FEF7EE
:103AC000ABFD0346002B03D01D210F48FCF7B4FCCF
:103AD0000F237B600223BB600023FB604FF48063F5
:103AE0003B6100237B613B1D02211846FFF714F860
:103AF0000346002B03D02A210348FCF79DFC00BF9E
:103B00004037BD4680BD00BF88B0000880B586B094
:103B100000AFF860B9607A603B60FB687B617B69ED
:103B2000002B04D118220F490F4805F02DFC7B68AB
:103B30003B613B69002B02D03B68042B01D0002382
:103B40000CE07B691B6C9B683A6912881146F86827
:103B5000984703469AB23B695A803B681846183723
:103B6000BD4680BD64D0000898B0000880B586B01E
:103B700000AFF860B9607A603B60FB687B617B698D
:103B8000002B04D127220E490E4805F0FDFB7B686F
:103B90003B613B69002B02D03B68042B01D0002322
:103BA0000AE07B691B6C5B683A69128811463A69C6
:103BB0005288F86898473B6818461837BD4680BD5C
:103BC00070D0000898B0000880B586B000AFF860EB
:103BD000B9607A60FB687B617B69002B04D1372276
:103BE0000D490E4805F0D0FB7B683B613B69002B1B
:103BF00002D14FF0FF330AE07B691B6C1B683A6906
:103C0000128811463A695288F86898470023184686
:103C10001837BD4680BD00BF7CD0000898B00008B2
:103C200080B584B000AFF860B9607A60154B12229D
:103C30001A75144B0022DA61124B00221A62114BE2
:103C400000225A620F4B00229A620E4B0022DA6267
:103C50000C4B0D4A1A630B4B0C4A5A63094B0C4A26
:103C60009A63084ABB681364064A7B68D3630322DD
:103C7000F968044803F0DBFF002318461037BD46FF
:103C800080BD00BFF40800200D3B00086D3B00081C
:103C9000C93B000880B582B000AF786039600A4B3C
:103CA0001B6C002B04D188220849094805F06CFBE5
:103CB000054B1B6C1B683A6879680348984700BF3E
:103CC0000837BD4680BD00BFF40800208CD0000836
:103CD000A8B0000880B582B000AF786039600A4BA8
:103CE0001B6C002B04D18F220849094805F04CFBBE
:103CF000054B1B6C5B683A6879680348984700BFBE
:103D00000837BD4680BD00BFF408002098D00008E9
:103D1000A8B0000880B582B000AF7860094B1B6C7A
:103D2000002B04D196220849084805F02DFB054BCD
:103D30001B6C9B6879680348984703461846083708
:103D4000BD4680BDF4080020A8D00008A8B0000837
:103D500080B586B000AFF860B9607A60FB68002B70
:103D600004D1D3221549164805F00EFB7B687B6110
:103D700016E0FB681B6CDB68F868984738613B69A4
:103D8000B3F1FF3F10D03B69DAB2BB681A70BB6871
:103D90000133BB607B68013B7B603B690A2B05D02C
:103DA0007B68002BE5D102E000BF00E000BF7A692C
:103DB0007B68D31A18461837BD4680BD74D10008F9
:103DC000C0B0000880B586B000AFF860B9607A6016
:103DD000FB68002B04D1E7221749184805F0D4FAF4
:103DE0007B687B611DE0BB681B780A2B0BD1FB68ED
:103DF0001B8B03F04003002B05D0FB681B6C9B68FA
:103E00000D21F8689847FB681B6C9B68BA681278AC
:103E10001146F8689847BB680133BB607B68013B7B
:103E20007B607B68002BDED17A697B68D31A1846E9
:103E30001837BD4680BD00BFA4D10008C0B000083F
:103E400080B588B000AFF860B9607A60FB68002B7D
:103E500005D14FF483722D492D4805F095FA7B6802
:103E6000FB61FB68DB6CBB61BB69002B44D14FF489
:103E700085722649274805F087FA3DE0FCF798F956
:103E80007861BB69DA88BB699B889A4207D1BB69B4
:103E90009B68002B03D17869FCF78EF92FE0BB6992
:103EA0001B68BA69D28813441B783B61BB69DB8805
:103EB00001339AB2BB69DA80BB69DA88FB689B6C14
:103EC000C3F38F239BB29A4202D3BB690022DA80EC
:103ED000BB699B68012B02D1BB6900229A6078699B
:103EE000FCF76AF93B69DAB2BB681A70BB68013348
:103EF000BB607B68013B7B607B68002BBED1FA69AD
:103F00007B68D31A18462037BD4680BD54D10008BF
:103F1000C0B00008D4B0000880B586B000AFF8602B
:103F2000B9607A60FB68002B05D14FF49B721B4986
:103F30001B4805F029FA7B687B61FB681B6D3B61C0
:103F40003B69002B1FD14FF49D721449154805F0B1
:103F50001BFA18E0FB681B6C9B68BA681278114664
:103F6000F86898470346B3F1FF3F06D13B694FF02D
:103F7000FF31184600F0F2FF05E0BB680133BB607B
:103F80007B68013B7B607B68002BE3D17A697B68AF
:103F9000D31A18461837BD4680BD00BF94D100081B
:103FA000C0B00008E8B0000880B500AF084B1B683F
:103FB000002B0BD1074805F06FF9074805F06CF9A5
:103FC000064805F069F9024B01221A6000BF80BD66
:103FD00038090020F8B0000804B1000868B10008F2
:103FE00080B584B000AF78607B68DB6CFB60FB68F9
:103FF000002B05D140F25D1219491A4805F0C4F9A9
:10400000FB689A88FB68DB889A420BD1FB689B6847
:10401000002B05D07B689B6CC3F38F239BB21BE006
:10402000002319E0FB689A88FB68DB889A4206D96E
:10403000FB689B881A46FB68DB88D31A0CE07B6818
:104040009B6CC3F38F239BB21A46FB68DB8819462F
:10405000FB689B88CB1AD31A18461037BD4680BD23
:10406000B4D00008D4B0000880B582B000AF78604A
:104070007868FFF7B5FF034618460837BD4680BD90
:1040800080B584B000AF786039607B68DB6CFB6022
:10409000FB68002B05D14FF4C4721F491F4805F07F
:1040A00073F97868FFF7E0FF02463B689A4205D251
:1040B00040F2891218491A4805F066F9FB689B68B6
:1040C000002B05D03B68002B02D0FB6800229A60D1
:1040D000FB68DA883B689BB213449AB2FB68DA80CB
:1040E000FB68DA887B689B6CC3F38F239BB29A4290
:1040F0000ED3FB68DB887A68926CC2F38F2292B28F
:10410000B3FBF2F102FB01F29B1A9AB2FB68DA8070
:1041100000BF1037BD4680BDD4D00008D4B0000821
:104120006CB1000880B584B000AF786039607B68FE
:10413000DB6CFB60FB68002B05D14FF4CF72354977
:10414000354805F021F9FB68DA88FB689B889A42BC
:1041500029D8FB689A883B689BB213449AB2FB68E3
:104160009A80FB689A887B689B6CC3F38F239BB211
:104170009A4241D3FB689B887A68926CC2F38F2283
:1041800092B2B3FBF2F102FB01F29B1A9AB2FB6806
:104190009A80FB689A88FB68DB889A422CD3FB687C
:1041A00001229A6028E0FB689A883B689BB213441E
:1041B0009AB2FB689A80FB689A88FB68DB889A420F
:1041C0001AD3FB689A887B689B6CC3F38F239BB2DE
:1041D0009A420ED3FB689B887A68926CC2F38F2256
:1041E00092B2B3FBF2F102FB01F29B1A9AB2FB68A6
:1041F0009A80FB6801229A60FB689B68012B05D1BD
:10420000FFF7D2FEFB689A88FB68DA8000BF1037A0
:10421000BD4680BDF4D00008D4B0000890B58BB086
:1042200000AFF860B9607A60FB68002B02D0BB6811
:10423000002B05D140F2CB125849594805F0A4F89B
:10424000FBF7B6FFF861FB689A6C564B1340002BE6
:1042500038D100237B62FB68DB6CBB61BB69002B40
:1042600005D140F2D5124D494F4805F08DF8BB6994
:104270001B68012B16D0BB6901221A60FB681B6CFE
:104280001B69002B05D14FF4ED724449474805F0F6
:104290007BF8FB681B6C1C697A680123B968F868B5
:1042A000A04702E06FF006037B62F869FBF784FF2A
:1042B0007B6A002B01D17B686BE0786A04F0C8F957
:1042C000002366E0FB68DB6C7B6100233B62F868DF
:1042D000FFF7CAFE38617B69002B05D14FF4F572F8
:1042E0002E49334805F050F83B697A689A4202DA61
:1042F0007B683B6201E03B693B627B69DB881A4675
:104300003B6A1344FA68926CC2F38F2292B29342D2
:104310000AD27B691B687A69D28813443A6A1946C3
:10432000B86804F00FFA2CE07B691B687A69D288C0
:104330009918FB689B6CC3F38F239BB21A467B6969
:10434000DB88D31A1A46B86804F0FCF9FB689B6C4A
:10435000C3F38F239BB21A467B69DB88D31ABA68F2
:10436000D0187B6919687B69DB881A463B6A13445D
:10437000FA68926CC2F38F2292B29B1A1A4604F02A
:10438000E1F9396AF868FFF77BFEF869FBF714FF7B
:104390003B6A18462C37BD4690BD00BF64D100086B
:1043A00094B1000800FCFF03C0B10008D4B10008BC
:1043B000D4B0000890B589B000AFF860B9607A60F9
:1043C000FB681B6DFB61FB69181D7A684FF0FF33BA
:1043D000B96800F0FBFEB861BB69002B1AD1FBF78E
:1043E000E7FE7861FB691B68012B0ED0FB69012297
:1043F0001A607869FBF7E0FEFB681B6C1C697A6841
:104400000223B968F868A04702E07869FBF7D4FE98
:104410007B6803E0B86904F01BF9002318462437D1
:10442000BD4690BD80B584B000AF78600023FB60CE
:104430007B68002B05D14FF40B720F490F4804F035
:10444000A3FF7B68BB60BB680022DA64BB68002204
:104450001A65BB681B6C1B68002B08D0BB681B6C03
:104460001B68BA6844321146B8689847F860FB6820
:1044700018461037BD4680BD14D10008FCB10008B5
:1044800080B58AB000AF78600B467B800023FB8448
:104490007B68002B05D140F23F22A049A04804F0E0
:1044A00073FF7B683B627B8803F40073002B08D0AA
:1044B0007B68DB8A03F40073002B02D16FF00703E3
:1044C0008CE17B8803F40063002B08D07B68DB8AD7
:1044D00003F40063002B02D16FF007037EE17B88B9
:1044E00003F48073002B08D07B68DB8A03F48073AD
:1044F000002B02D16FF0070370E17B8803F4806327
:10450000002B08D07B68DB8A03F48063002B02D188
:104510006FF0070362E17B8803F04003002B05D1B5
:104520007B681B8B03F04003002B01D04023FB84EE
:104530007B88DBB29AB27B681A833B6ADB6C002B08
:1045400040F0A6807B8803F48073002B3ED03B6A4A
:104550009B6CC3F38F239BB20C33184605F046F8CF
:10456000F861FB69002B05D140F25E226B496D4872
:1045700004F00AFFFB6903F10C02FB691A60FB6996
:1045800018683B6A9B6CC3F38F239BB21A460021C9
:1045900004F07EF8FB6900229A80FB690022DA8031
:1045A000FB6900229A603B6AFA69DA647B681B8BBC
:1045B00043F480739AB27B681A833B6A1B6C5B6816
:1045C0004FF480721021386A98477AE07B8803F4B0
:1045D0000073002B58D03B6A9A6C534B1340002B4E
:1045E00013D1042005F002F8B861BB69002B05D196
:1045F00040F2712249494D4804F0C6FEBB690022D1
:104600001A603B6ABA69DA6436E03B6A9B6CC3F3B2
:104610008F239BB20C33184604F0E8FF78617B6966
:10462000002B05D140F27A223C493E4804F0ACFE12
:104630007B6903F10C027B691A607B6918683B6A2D
:104640009B6CC3F38F239BB21A46002104F020F821
:104650007B6900229A807B690022DA807B690022D4
:104660009A603B6A7A69DA643B6A1B6C5B684FF458
:1046700000720321386A98477B681B8B43F40073F0
:104680009AB27B681A831CE03B6A0022DA6418E065
:104690007B8803F48073002B07D07B681B8B43F46B
:1046A00080739AB27B681A830BE07B8803F40073F3
:1046B000002B06D07B681B8B43F400739AB27B6897
:1046C0001A833B6A1B6D002B67D17B8803F48063E0
:1046D000002B2FD00C2004F089FF38613B69002BA0
:1046E00005D140F29D220D49114804F04DFE3B6971
:1046F000184600F011FC3B6A3A691A657B681B8B0F
:1047000043F480639AB27B681A833B6A1B6C5B68D4
:104710004FF480621021386A984757E024D100088E
:10472000FCB10008D4B0000800FCFF03C0B10008D1
:104730000CB200087B8803F40063002B29D02C20E6
:1047400004F054FFF860FB68002B05D14FF42B7286
:104750002449254804F018FEFB6800221A60FB6813
:10476000181D00230422082100F0E8FC3B6AFA68C7
:104770001A657B681B8B43F400639AB27B681A83CB
:104780003B6A1B6C5B684FF400620321386A9847F0
:104790001CE03B6A00221A6518E07B8803F4806302
:1047A000002B07D07B681B8B43F480639AB27B6835
:1047B0001A830BE07B8803F40063002B06D07B6830
:1047C0001B8B43F400639AB27B681A837B681A8B55
:1047D000FB8C13439AB27B681A8300231846283750
:1047E000BD4680BD24D1000820B2000880B588B045
:1047F00000AF78607B68002B05D14FF434726C49B0
:104800006C4804F0C1FD7B68FB617B689B7E012BDB
:1048100001D90023C7E07B681B8B03F48073002B56
:1048200021D0FB69DB6CBB61BB69002B05D140F279
:10483000DB225F49604804F0A7FDB86905F03EF847
:10484000FB690022DA647B681B8B23F480739AB2C5
:104850007B681A83FB691B6C5B684FF480721121C3
:10486000F86998473CE07B681B8B03F40073002BCE
:1048700036D0FB699A6C514B1340002B0FD1FB696A
:10488000DB6C7B617B69002B05D140F2EB22484950
:104890004B4804F079FD786905F010F80EE0FB69EB
:1048A000DB6C3B613B69002B05D140F2F2224049B1
:1048B000414804F069FD386905F000F8FB69002201
:1048C000DA647B681B8B23F400739AB27B681A83CB
:1048D000FB691B6C5B684FF400721121F869984703
:1048E0007B681B8B03F48063002B21D0FB691B6D5D
:1048F000FB60FB68002B05D140F203322C493148A4
:1049000004F042FDF86804F0D9FFFB6900221A6543
:104910007B681B8B23F480639AB27B681A83FB69E4
:104920001B6C5B684FF480621121F86998472BE09B
:104930007B681B8B03F40063002B25D0FB691B6D88
:10494000BB60BB68002B05D140F2123218491E48EB
:1049500004F01AFDBB680433184600F0C1FEB868C5
:1049600004F0ACFFFB6900221A657B681B8B23F403
:1049700000639AB27B681A83FB691B6C5B684FF417
:1049800000621121F8699847FB691B6C5B68002283
:104990000421F86998477B68DB8A23F010039AB2F8
:1049A0007B68DA82002318462037BD4680BD00BFF1
:1049B00034D10008FCB10008D4B0000800FCFF03AB
:1049C000C0B100080CB2000820B2000880B586B063
:1049D00000AFF860B9607A603B60FB68002B05D1DE
:1049E0004FF44B721849194804F0CEFC3B68002B79
:1049F00001D1002324E0FB687B61FB681B8B03F47F
:104A00008073002B07D03B681A4679687869FFF7F6
:104A100017FA034614E0FB681B8B03F40073002BAA
:104A200007D03B681A4679687869FFF7F7FB0346B9
:104A300006E03B681A4679687869FFF789F903460A
:104A400018461837BD4680BD44D10008FCB10008A7
:104A500080B586B000AFF860B9607A603B60FB68F3
:104A6000002B05D140F246321849194804F08CFC5D
:104A70003B68002B01D1002324E0FB687B61FB68CD
:104A80001B8B03F48063002B07D03B681A467968C0
:104A90007869FFF741FA034614E0FB681B8B03F4C7
:104AA0000063002B07D03B681A4679687869FFF7E6
:104AB00081FC034606E03B681A4679687869FFF78F
:104AC00081F9034618461837BD4680BD84D10008D9
:104AD000FCB1000880B588B000AFF860B9607A60BA
:104AE0000023FB61FB68002B05D140F2C3322B4948
:104AF0002B4804F049FCFB68BB61BB68022B04D067
:104B0000032B12D0012B08D038E0FB68DB8A43F07E
:104B100020039AB2FB68DA823AE0FB68DB8A23F072
:104B200020039AB2FB68DA8232E07B68002B2ED039
:104B30007B687B617B695B68C3F38F239AB2BB6937
:104B40009B6CC3F38F239BB29A4205D0BB699B7EBB
:104B5000002B01D007231CE0BB697A69443392E83B
:104B6000030083E80300BB699B7E002B0FD0BB6969
:104B70001B6C1B687968B869984708E0BB691B6CB7
:104B80005B687A68B968B8699847F86100E000BF67
:104B9000FB6918462037BD4680BD00BFB4D1000870
:104BA000FCB1000880B586B000AFF860B9607A60EB
:104BB0003B60FB68002B05D140F26F421849194851
:104BC00004F0E2FBFB687B617B6900221A757B695C
:104BD0000022DA617B6900221A627B69124A5A62FA
:104BE0007B69124A9A627B69114ADA627B69114ACF
:104BF0001A637B69104A5A637B69104A9A637B691E
:104C00003A68DA637B689BB21A46B968786903F040
:104C10000EF838613B6918461837BD4680BD00BFA5
:104C2000C8D10008C0B0000825440008814400082D
:104C3000ED470008CD490008514A0008D54A000850
:104C400090B58FB000AF786039603B68DBB2013B54
:104C5000032B00F2188101A252F823F06D4C0008DA
:104C60007F4D0008F54D00088F4D00084FF0FF33D1
:104C70007B637B68DB6C3B633B6B002B05D140F2B5
:104C80009B428349834804F07FFB7B681B6CDB6895
:104C90007868984778637B6BB3F1FF3F3DD0FBF7B3
:104CA00087FAF8623B6B1B683A6B928813447A6B05
:104CB000D2B21A703B6B9B8801339AB23B6B9A80DD
:104CC0003B6B9A887B689B6CC3F38F239BB29A42A1
:104CD00002D33B6B00229A803B6B9A883B6BDB884C
:104CE0009A4216D13B6BDB8801339AB23B6BDA8078
:104CF0003B6B01229A603B6BDA887B689B6CC3F349
:104D00008F239BB29A4202D33B6B0022DA80FFF7DB
:104D10004BF9F86AFBF750FAB7E700BF7B68DB692D
:104D2000002B00F0AB80FBF743FAF8623B6B9A88EC
:104D30003B6BDB889A4206D33B6B9B881A463B6BE6
:104D4000DB88D31A0CE07B689B6CC3F38F239BB288
:104D50001A463B6BDB8819463B6B9B88CB1AD31AF0
:104D6000BB62F86AFBF728FABB6A002B00F086806A
:104D70007B68DB697A68B96A104698477EE07B6891
:104D80001B6D7B627B6A184600F066F97BE07B68EE
:104D90001B6D3B623B6A181D07F10C0207F108010D
:104DA000002300F0E9FA3B6A043307F10C0207F133
:104DB0001001184600F0E0FB0346002B0BD13B6AC4
:104DC00001221A607B681B6C1C693969FA6802232E
:104DD0007868A04702E03B6A00221A607B681B6A81
:104DE000002B4DD07B681B6A7A68B96810469847DB
:104DF00000BF45E03B681B12FB617B689A6C264B49
:104E00001340002B1FD17B68DB6CBB61BB69002B9F
:104E100005D140F2FC421E49204804F0B5FA7B68F7
:104E2000DB69002B05D140F2FE4219491C4804F011
:104E3000ABFA7B68DB697A68F96910469847BB6909
:104E400000221A601EE0FBF7B3F97861FB6919468E
:104E50007868FFF767F97868FFF706F90346FB61A2
:104E60007869FBF7A9F97B68DB69002B0AD07B68BE
:104E7000DB697A68F9691046984703E000BF02E0F1
:104E800000BF00E000BF00BF3C37BD4690BD00BF83
:104E9000E0D10008D4B0000800FCFF03C0B1000856
:104EA00034B2000880B483B000AF78607B687A6861
:104EB0005A607B685A687B681A6000BF0C37BD4631
:104EC00080BC704780B483B000AF786039607B6885
:104ED0005B683A681A607B685A683B685A607B680E
:104EE0003A685A603B687A681A6000BF0C37BD4662
:104EF00080BC704780B483B000AF78607B681A686C
:104F00007B689A420CBF01230023DBB218460C37A2
:104F1000BD4680BC7047000080B584B000AF7860AB
:104F20007B68002B04D115220A490B4804F02CFAA7
:104F3000FBF73EF9F8607B6800221A607B68043357
:104F40001846FFF7AFFFF868FBF736F900BF1037D8
:104F5000BD4680BDF4D100085CB2000880B586B0C3
:104F600000AF786039607B68002B04D1242235497A
:104F7000354804F009FA00237B6105F003FBF86073
:104F8000FBF716F938617B681B68012B4FD07B68F3
:104F900004331846FFF7AEFF0346002B04D12D2241
:104FA00028492A4804F0F0F93B68002B03D16FF040
:104FB00001037B613EE0FB6800221A63F86805F09C
:104FC000C9FB7B681A1DFB68143319461046FFF7AE
:104FD00079FFFBF7EDF8B86003F026FB0346002BE2
:104FE00008D018491A4804F057F9402215491948C1
:104FF00004F0CAF9B868FBF7DFF83B68002B0BDD5B
:10500000FB684C333A460021184605F0E3FEFB6886
:105010004C33184605F096FD3869FBF7CDF804F0DF
:10502000F7FFFB681B6B7B61FBF7C2F838617B689D
:1050300000221A603869FBF7BFF87B6918461837F9
:10504000BD4680BD08D200085CB2000874B20008FA
:10505000A4B20008CCB2000880B584B000AF78607C
:105060007B68002B04D164221549164804F08CF9A2
:105070007B681B68012B1ED0FBF79AF8F8607B68F1
:1050800001221A607B6804331846FFF733FF03469A
:10509000002B0CD17B685B68143BBB60B86805F0E3
:1050A000BFFBF868FBF788F804F0B2FF04E0F8688B
:1050B000FBF782F800E000BF1037BD4680BD00BF9F
:1050C0001CD200085CB2000880B483B000AF7860E6
:1050D0007B687A685A607B685A687B681A6000BF90
:1050E0000C37BD4680BC704780B483B000AF786099
:1050F00039607B685B683A681A607B685A683B680D
:105100005A607B683A685A603B687A681A6000BFE8
:105110000C37BD4680BC704780B483B000AF786068
:105120007B681A687B689A420CBF01230023DBB2BC
:1051300018460C37BD4680BC7047000080B584B06F
:1051400000AFF8607B600B467B8113463B81FB68B8
:10515000002B04D11E221A491A4804F015F9FB68E5
:105160007A685A62FB68184A1A60FB687A899A80E2
:10517000FB683A89DA80FB6800229A81FB6800228A
:10518000DA81FB6814331846FFF79EFFFB681C3377
:105190001846FFF799FF7B89DB00184604F026FAD2
:1051A0000246FB681A61FB681B69002B02D16FF095
:1051B000040300E0002318461037BD4680BD00BF41
:1051C00030D20008D0B200080E0EADBE80B588B057
:1051D00000AFF860B9607A603B60FB681B68604AAA
:1051E000934204D03F225F495F4804F0CDF8FB684A
:1051F000002B04D140225B495C4804F0C5F8002331
:10520000BB6105F0BFF97861FAF7D2FF0346FB6195
:1052100048E03B68002B03D16FF00103BB6189E0DC
:10522000FAF7C6FF386103F0FFF90346002B08D0F8
:105230004C494F4804F030F851224A494D4804F097
:10524000A3F83869FAF7B8FF7B6900221A63786916
:1052500005F080FAFB6803F114027B6914331946E8
:105260001046FFF741FF3B68002B0BDD7B694C3399
:105270003A460021184605F0ADFD7B694C331846CF
:1052800005F060FCFB691846FAF796FF04F0C0FED3
:105290007B691B6BBB61FAF78BFF0346FB61BB6944
:1052A000002B46D1FB68DB891A46FB689B89D31A21
:1052B000FA6892889342ACD0FB681969FB68DB8975
:1052C000FA689288B3FBF2F002FB00F29B1A9BB2E1
:1052D000DB000B44BA681A60FB681969FB68DB895C
:1052E000FA689288B3FBF2F002FB00F29B1A9BB2C1
:1052F000DB000B447A685A60FB68DB8901339AB2A1
:10530000FB68DA81FB681C331846FFF705FF03468C
:10531000002B0FD1FB68DB69143B7B61786905F0DA
:105320007FFAFB691846FAF747FF04F071FEBB6984
:1053300011E000BFFB691846FAF73EFFBB69002B7E
:1053400008D1FB685B6A002B04D0FB685B6A022112
:10535000F8689847BB6918462037BD4680BD00BF36
:105360000E0EADBE44D20008E4B20008D0B2000870
:1053700004B300082CB3000880B588B000AFF86013
:10538000B9607A603B60FB681B68734A934204D043
:1053900099227249724803F0F7FFFB68002B04D191
:1053A0009A226E496F4803F0EFFFBB68002B04D1CF
:1053B0009B226A496C4803F0E7FF7B68002B04D10D
:1053C0009C226649694803F0DFFF0023BB6105F0BA
:1053D000D9F87861FAF7ECFE0346FB6148E03B68D8
:1053E000002B03D16FF00103BB619FE0FAF7E0FEF1
:1053F000386103F019F90346002B08D057495C487F
:1054000003F04AFFAC2255495A4803F0BDFF386902
:10541000FAF7D2FE7B6900221A63786905F09AF9DF
:10542000FB6803F11C027B69143319461046FFF731
:105430005BFE3B68002B0BDD7B694C333A46002159
:10544000184605F0C7FC7B694C33184605F07AFB1B
:10545000FB691846FAF7B0FE04F0DAFD7B691B6BB6
:10546000BB61FAF7A5FE0346FB61BB69002B5CD16B
:10547000FB689A89FB68DB899A42B0D0FB6819699E
:10548000FB689B89FA689288B3FBF2F002FB00F29A
:105490009B1A9BB2DB000B441A68BB681A60FB685E
:1054A0001969FB689B89FA689288B3FBF2F002FBEA
:1054B00000F29B1A9BB2DB000B445A687B681A60AF
:1054C000FB689B8901339AB2FB689A81FB68DB8990
:1054D0001A46FB689B89D31AFA68D288934225DC66
:1054E000FB6814331846FFF717FE0346002B0DD157
:1054F000FB685B69143B7B61786905F091F9FB6996
:105500001846FAF759FE04F083FD03E0FB691846DC
:10551000FAF752FEFB685B6A002B04D0FB685B6AFB
:105520000321F8689847BB6911E000BFFB69184682
:10553000FAF742FEBB69002B08D1FB685B6A002BBF
:1055400004D0FB685B6A0121F8689847BB6918467C
:105550002037BD4680BD00BF0E0EADBE58D200083C
:10556000E4B20008D0B2000830B3000844B3000829
:1055700004B300082CB3000880B586B000AFF86013
:10558000B9607A60FB681B68254A934204D0FD220B
:105590002449254803F0F8FEFB68002B04D1FE22C5
:1055A0002049224803F0F0FEFAF702FE03467B6131
:1055B000FB689A89FB68DB899A4206D17B691846A9
:1055C000FAF7FAFD6FF0030326E0FB681969FB6840
:1055D0009B89FA689288B3FBF2F002FB00F29B1AF7
:1055E0009BB2DB000B441A68BB681A60FB68196940
:1055F000FB689B89FA689288B3FBF2F002FB00F229
:105600009B1A9BB2DB000B445A687B681A607B696B
:105610001846FAF7D1FD002318461837BD4680BD5D
:105620000E0EADBE6CD20008E4B20008D0B2000885
:1056300090B585B000AF78607B681B68254A9342BF
:1056400005D040F217122449244803F09DFE04F0CF
:1056500031FE12E0FAF7ACFD03461C467B68DB69BD
:10566000143BFB60FB684FF0FF321A63F86805F0EB
:10567000D7F823461846FAF79FFD7B681C33184677
:10568000FFF74AFD0346002BE4D012E0FAF790FD45
:1056900003461C467B685B69143BFB60FB684FF06C
:1056A000FF321A63F86805F0BBF823461846FAF78C
:1056B00083FD7B6814331846FFF72EFD0346002B4D
:1056C000E4D004F00DFE04F0A3FC00BF1437BD4687
:1056D00090BD00BF0E0EADBE80D20008E4B200083F
:1056E00080B584B000AF78607B681B68144A934231
:1056F00005D040F255121349134803F045FE7B686C
:10570000002B05D14FF4AB720E49104803F03CFE5C
:10571000FAF74EFD0346FB607868FFF789FF7B6868
:1057200000221A607B681B69184604F0C7F8FB6802
:105730001846FAF741FD002318461037BD4680BDD4
:105740000E0EADBE94D20008E4B20008D0B200083C
:1057500080B483B000AF78607B681A687B689A4237
:105760000CBF01230023DBB218460C37BD4680BCBA
:10577000704780B485B000AF78600023FB607B6821
:10578000BB6005E0BB681B68BB60FB680133FB6066
:10579000BB681A687B689A42F4D1FB6818461437D4
:1057A000BD4680BC7047000080B500AF024803F0E2
:1057B00073FD0023184680BD54B3000880B500AFC8
:1057C000024803F069FD0023184680BD68B3000855
:1057D00080B500AF03F0F6F80023184680BD000046
:1057E00080B582B000AF786002E0064803F054FD57
:1057F0007B685A1E7A60002BF7D100BF0837BD4680
:1058000080BD00BF70B3000880B586B000AFF860FF
:105810007A603B600B46FB72FB7A184604F066F92F
:1058200078617B6904333B61FB683A691A60FB6805
:10583000FA7A1A72FB687A685A60FB683A68DA602A
:10584000FB6800221A6100BF1837BD4680BD80B5D5
:105850008AB000AF7860396000237B623B68002229
:105860001A613B68DB68002B03D03B681B7A002B76
:1058700001D100234AE03B681B687B617B68002BF9
:1058800004D17B693B6201237B6201E07B683B6260
:10589000FAF78EFC03463B617B6A002B10D13B6A12
:1058A0000C3BFB60FB681B7A23F080033A68127A9A
:1058B000934205D03B691846FAF77EFC002325E0A9
:1058C0000023BB613B685B68FB613B6A1B683B6212
:1058D0003A6A7B699A4202D100233B620EE0BB69BF
:1058E0000133BB61FB691A1DFA613A6A1A603B68B1
:1058F000DA68BB699A4200D0E7E700BF3B69184607
:10590000FAF75AFC3B68BA691A613B6A18462837AD
:10591000BD4680BD90B5B9B002AF0023C7F8D43002
:10592000744BC7F8C83007F1800207F1A0000823C4
:105930000121FFF769FF0823C7F8C430D7F8C82052
:10594000D7F8C4106C4803F0A7FCD7F8C400FFF7E1
:1059500047FF6A4803F0A0FC07F1A0031946D7F8F7
:10596000D400FFF774FFC7F8D4000023C7F8D03085
:10597000AFE0D7F8D0309B0007F1D802134453F8BA
:10598000583C0C3BC7F8C030FAF712FC0346C7F886
:10599000BC30D7F8C0301B7A23F0800397F8A820DA
:1059A000934205D0D7F8BC301846FAF705FC8BE0D7
:1059B0003B468022D7F8C010184602F0C3FED7F845
:1059C000BC301846FAF7F8FBD7F8C030C7F8B83043
:1059D000D7F8B820D7F8B83093F83530009313468D
:1059E0000822D7F8C410464803F056FCD7F8B83060
:1059F00093F8343003F0070387F8B73097F8B730DF
:105A0000012B03D13F4803F047FC1EE097F8B73065
:105A1000022B03D13C4803F03FFC16E097F8B73067
:105A2000002B03D1394803F037FC0EE097F8B7306C
:105A3000042B03D1364803F02FFC06E097F8B7306B
:105A4000032B02D1334803F027FCD7F8B8309B6A08
:105A5000C7F8CC3004E0D7F8CC300133C7F8CC30ED
:105A6000D7F8CC301B78232BF5D0D7F8B830DA6ACA
:105A7000D7F8B8309B6A1946D7F8B830DB69CB1A2B
:105A8000D118D7F8B830D86AD7F8B830DA6AD7F86A
:105A9000B8309B6A1C46D7F8CC30E31A1344642212
:105AA00002FB03F2D7F8B830DB6AB2FBF3F4D7F8A5
:105AB000B8309B6CD7F8B820126B01920093234644
:105AC0000246154803F0E8FBD7F8D0300133C7F899
:105AD000D030D7F8B020D7F8D0309A423FF749AF4E
